{
	"data": {
		"bytecode": {
			"linkReferences": {},
			"object": "608060405234801561001057600080fd5b506001600060405161002190610133565b908152602001604051809103902060006101000a81548160ff021916908315150217905550600160006040516100569061011e565b908152602001604051809103902060006101000a81548160ff0219169083151502179055506001600060405161008b90610148565b908152602001604051809103902060006101000a81548160ff0219169083151502179055506101e3565b60006100c260048361015d565b91506100cd82610168565b600482019050919050565b60006100e560098361015d565b91506100f082610191565b600982019050919050565b600061010860048361015d565b9150610113826101ba565b600482019050919050565b6000610129826100b5565b9150819050919050565b600061013e826100d8565b9150819050919050565b6000610153826100fb565b9150819050919050565b600081905092915050565b7f6c756c6100000000000000000000000000000000000000000000000000000000600082015250565b7f626f6c736f6e61726f0000000000000000000000000000000000000000000000600082015250565b7f6d6f726f00000000000000000000000000000000000000000000000000000000600082015250565b61080b806101f26000396000f3fe608060405234801561001057600080fd5b50600436106100365760003560e01c806333ee31311461003b578063fc36e15b14610059575b600080fd5b610043610075565b604051610050919061051a565b60405180910390f35b610073600480360381019061006e919061030a565b6100f1565b005b61007d610279565b60405180606001604052806002604051610096906104b0565b908152602001604051809103902054815260200160026040516100b89061049b565b908152602001604051809103902054815260200160026040516100da906104c5565b908152602001604051809103902054815250905090565b6000816040516101019190610484565b908152602001604051809103902060009054906101000a900460ff1661015c576040517f08c379a0000000000000000000000000000000000000000000000000000000008152600401610153906104da565b60405180910390fd5b600160003373ffffffffffffffffffffffffffffffffffffffff1673ffffffffffffffffffffffffffffffffffffffff16815260200190815260200160002060009054906101000a900460ff16156101e9576040517f08c379a00000000000000000000000000000000000000000000000000000000081526004016101e0906104fa565b60405180910390fd5b60018060003373ffffffffffffffffffffffffffffffffffffffff1673ffffffffffffffffffffffffffffffffffffffff16815260200190815260200160002060006101000a81548160ff02191690831515021790555060016002826040516102529190610484565b9081526020016040518091039020600082825461026f91906105b2565b9250508190555050565b60405180606001604052806000815260200160008152602001600081525090565b60006102ad6102a88461055a565b610535565b9050828152602081018484840111156102c9576102c86106e8565b5b6102d4848285610612565b509392505050565b600082601f8301126102f1576102f06106e3565b5b813561030184826020860161029a565b91505092915050565b6000602082840312156103205761031f6106f2565b5b600082013567ffffffffffffffff81111561033e5761033d6106ed565b5b61034a848285016102dc565b91505092915050565b600061035e8261058b565b61036881856105a7565b9350610378818560208601610621565b80840191505092915050565b60006103916004836105a7565b915061039c82610708565b600482019050919050565b60006103b46009836105a7565b91506103bf82610731565b600982019050919050565b60006103d7601883610596565b91506103e28261075a565b602082019050919050565b60006103fa6004836105a7565b915061040582610783565b600482019050919050565b600061041d601683610596565b9150610428826107ac565b602082019050919050565b6060820160008201516104496000850182610475565b50602082015161045c6020850182610475565b50604082015161046f6040850182610475565b50505050565b61047e81610608565b82525050565b60006104908284610353565b915081905092915050565b60006104a682610384565b9150819050919050565b60006104bb826103a7565b9150819050919050565b60006104d0826103ed565b9150819050919050565b600060208201905081810360008301526104f3816103ca565b9050919050565b6000602082019050818103600083015261051381610410565b9050919050565b600060608201905061052f6000830184610433565b92915050565b600061053f610550565b905061054b8282610654565b919050565b6000604051905090565b600067ffffffffffffffff821115610575576105746106b4565b5b61057e826106f7565b9050602081019050919050565b600081519050919050565b600082825260208201905092915050565b600081905092915050565b60006105bd82610608565b91506105c883610608565b9250827fffffffffffffffffffffffffffffffffffffffffffffffffffffffffffffffff038211156105fd576105fc610685565b5b828201905092915050565b6000819050919050565b82818337600083830152505050565b60005b8381101561063f578082015181840152602081019050610624565b8381111561064e576000848401525b50505050565b61065d826106f7565b810181811067ffffffffffffffff8211171561067c5761067b6106b4565b5b80604052505050565b7f4e487b7100000000000000000000000000000000000000000000000000000000600052601160045260246000fd5b7f4e487b7100000000000000000000000000000000000000000000000000000000600052604160045260246000fd5b600080fd5b600080fd5b600080fd5b600080fd5b6000601f19601f8301169050919050565b7f6c756c6100000000000000000000000000000000000000000000000000000000600082015250565b7f626f6c736f6e61726f0000000000000000000000000000000000000000000000600082015250565b7f63616e64696461746520646f6573206e6f742065786973740000000000000000600082015250565b7f6d6f726f00000000000000000000000000000000000000000000000000000000600082015250565b7f596f75206861766520616c726561647920766f7465640000000000000000000060008201525056fea26469706673582212209a0371d8b57c1c956e21d6ff27c098025f11d2af200ec26b9dcba9b926f30a1764736f6c63430008070033",
			"opcodes": "PUSH1 0x80 PUSH1 0x40 MSTORE CALLVALUE DUP1 ISZERO PUSH2 0x10 JUMPI PUSH1 0x0 DUP1 REVERT JUMPDEST POP PUSH1 0x1 PUSH1 0x0 PUSH1 0x40 MLOAD PUSH2 0x21 SWAP1 PUSH2 0x133 JUMP JUMPDEST SWAP1 DUP2 MSTORE PUSH1 0x20 ADD PUSH1 0x40 MLOAD DUP1 SWAP2 SUB SWAP1 KECCAK256 PUSH1 0x0 PUSH2 0x100 EXP DUP2 SLOAD DUP2 PUSH1 0xFF MUL NOT AND SWAP1 DUP4 ISZERO ISZERO MUL OR SWAP1 SSTORE POP PUSH1 0x1 PUSH1 0x0 PUSH1 0x40 MLOAD PUSH2 0x56 SWAP1 PUSH2 0x11E JUMP JUMPDEST SWAP1 DUP2 MSTORE PUSH1 0x20 ADD PUSH1 0x40 MLOAD DUP1 SWAP2 SUB SWAP1 KECCAK256 PUSH1 0x0 PUSH2 0x100 EXP DUP2 SLOAD DUP2 PUSH1 0xFF MUL NOT AND SWAP1 DUP4 ISZERO ISZERO MUL OR SWAP1 SSTORE POP PUSH1 0x1 PUSH1 0x0 PUSH1 0x40 MLOAD PUSH2 0x8B SWAP1 PUSH2 0x148 JUMP JUMPDEST SWAP1 DUP2 MSTORE PUSH1 0x20 ADD PUSH1 0x40 MLOAD DUP1 SWAP2 SUB SWAP1 KECCAK256 PUSH1 0x0 PUSH2 0x100 EXP DUP2 SLOAD DUP2 PUSH1 0xFF MUL NOT AND SWAP1 DUP4 ISZERO ISZERO MUL OR SWAP1 SSTORE POP PUSH2 0x1E3 JUMP JUMPDEST PUSH1 0x0 PUSH2 0xC2 PUSH1 0x4 DUP4 PUSH2 0x15D JUMP JUMPDEST SWAP2 POP PUSH2 0xCD DUP3 PUSH2 0x168 JUMP JUMPDEST PUSH1 0x4 DUP3 ADD SWAP1 POP SWAP2 SWAP1 POP JUMP JUMPDEST PUSH1 0x0 PUSH2 0xE5 PUSH1 0x9 DUP4 PUSH2 0x15D JUMP JUMPDEST SWAP2 POP PUSH2 0xF0 DUP3 PUSH2 0x191 JUMP JUMPDEST PUSH1 0x9 DUP3 ADD SWAP1 POP SWAP2 SWAP1 POP JUMP JUMPDEST PUSH1 0x0 PUSH2 0x108 PUSH1 0x4 DUP4 PUSH2 0x15D JUMP JUMPDEST SWAP2 POP PUSH2 0x113 DUP3 PUSH2 0x1BA JUMP JUMPDEST PUSH1 0x4 DUP3 ADD SWAP1 POP SWAP2 SWAP1 POP JUMP JUMPDEST PUSH1 0x0 PUSH2 0x129 DUP3 PUSH2 0xB5 JUMP JUMPDEST SWAP2 POP DUP2 SWAP1 POP SWAP2 SWAP1 POP JUMP JUMPDEST PUSH1 0x0 PUSH2 0x13E DUP3 PUSH2 0xD8 JUMP JUMPDEST SWAP2 POP DUP2 SWAP1 POP SWAP2 SWAP1 POP JUMP JUMPDEST PUSH1 0x0 PUSH2 0x153 DUP3 PUSH2 0xFB JUMP JUMPDEST SWAP2 POP DUP2 SWAP1 POP SWAP2 SWAP1 POP JUMP JUMPDEST PUSH1 0x0 DUP2 SWAP1 POP SWAP3 SWAP2 POP POP JUMP JUMPDEST PUSH32 0x6C756C6100000000000000000000000000000000000000000000000000000000 PUSH1 0x0 DUP3 ADD MSTORE POP JUMP JUMPDEST PUSH32 0x626F6C736F6E61726F0000000000000000000000000000000000000000000000 PUSH1 0x0 DUP3 ADD MSTORE POP JUMP JUMPDEST PUSH32 0x6D6F726F00000000000000000000000000000000000000000000000000000000 PUSH1 0x0 DUP3 ADD MSTORE POP JUMP JUMPDEST PUSH2 0x80B DUP1 PUSH2 0x1F2 PUSH1 0x0 CODECOPY PUSH1 0x0 RETURN INVALID PUSH1 0x80 PUSH1 0x40 MSTORE CALLVALUE DUP1 ISZERO PUSH2 0x10 JUMPI PUSH1 0x0 DUP1 REVERT JUMPDEST POP PUSH1 0x4 CALLDATASIZE LT PUSH2 0x36 JUMPI PUSH1 0x0 CALLDATALOAD PUSH1 0xE0 SHR DUP1 PUSH4 0x33EE3131 EQ PUSH2 0x3B JUMPI DUP1 PUSH4 0xFC36E15B EQ PUSH2 0x59 JUMPI JUMPDEST PUSH1 0x0 DUP1 REVERT JUMPDEST PUSH2 0x43 PUSH2 0x75 JUMP JUMPDEST PUSH1 0x40 MLOAD PUSH2 0x50 SWAP2 SWAP1 PUSH2 0x51A JUMP JUMPDEST PUSH1 0x40 MLOAD DUP1 SWAP2 SUB SWAP1 RETURN JUMPDEST PUSH2 0x73 PUSH1 0x4 DUP1 CALLDATASIZE SUB DUP2 ADD SWAP1 PUSH2 0x6E SWAP2 SWAP1 PUSH2 0x30A JUMP JUMPDEST PUSH2 0xF1 JUMP JUMPDEST STOP JUMPDEST PUSH2 0x7D PUSH2 0x279 JUMP JUMPDEST PUSH1 0x40 MLOAD DUP1 PUSH1 0x60 ADD PUSH1 0x40 MSTORE DUP1 PUSH1 0x2 PUSH1 0x40 MLOAD PUSH2 0x96 SWAP1 PUSH2 0x4B0 JUMP JUMPDEST SWAP1 DUP2 MSTORE PUSH1 0x20 ADD PUSH1 0x40 MLOAD DUP1 SWAP2 SUB SWAP1 KECCAK256 SLOAD DUP2 MSTORE PUSH1 0x20 ADD PUSH1 0x2 PUSH1 0x40 MLOAD PUSH2 0xB8 SWAP1 PUSH2 0x49B JUMP JUMPDEST SWAP1 DUP2 MSTORE PUSH1 0x20 ADD PUSH1 0x40 MLOAD DUP1 SWAP2 SUB SWAP1 KECCAK256 SLOAD DUP2 MSTORE PUSH1 0x20 ADD PUSH1 0x2 PUSH1 0x40 MLOAD PUSH2 0xDA SWAP1 PUSH2 0x4C5 JUMP JUMPDEST SWAP1 DUP2 MSTORE PUSH1 0x20 ADD PUSH1 0x40 MLOAD DUP1 SWAP2 SUB SWAP1 KECCAK256 SLOAD DUP2 MSTORE POP SWAP1 POP SWAP1 JUMP JUMPDEST PUSH1 0x0 DUP2 PUSH1 0x40 MLOAD PUSH2 0x101 SWAP2 SWAP1 PUSH2 0x484 JUMP JUMPDEST SWAP1 DUP2 MSTORE PUSH1 0x20 ADD PUSH1 0x40 MLOAD DUP1 SWAP2 SUB SWAP1 KECCAK256 PUSH1 0x0 SWAP1 SLOAD SWAP1 PUSH2 0x100 EXP SWAP1 DIV PUSH1 0xFF AND PUSH2 0x15C JUMPI PUSH1 0x40 MLOAD PUSH32 0x8C379A000000000000000000000000000000000000000000000000000000000 DUP2 MSTORE PUSH1 0x4 ADD PUSH2 0x153 SWAP1 PUSH2 0x4DA JUMP JUMPDEST PUSH1 0x40 MLOAD DUP1 SWAP2 SUB SWAP1 REVERT JUMPDEST PUSH1 0x1 PUSH1 0x0 CALLER PUSH20 0xFFFFFFFFFFFFFFFFFFFFFFFFFFFFFFFFFFFFFFFF AND PUSH20 0xFFFFFFFFFFFFFFFFFFFFFFFFFFFFFFFFFFFFFFFF AND DUP2 MSTORE PUSH1 0x20 ADD SWAP1 DUP2 MSTORE PUSH1 0x20 ADD PUSH1 0x0 KECCAK256 PUSH1 0x0 SWAP1 SLOAD SWAP1 PUSH2 0x100 EXP SWAP1 DIV PUSH1 0xFF AND ISZERO PUSH2 0x1E9 JUMPI PUSH1 0x40 MLOAD PUSH32 0x8C379A000000000000000000000000000000000000000000000000000000000 DUP2 MSTORE PUSH1 0x4 ADD PUSH2 0x1E0 SWAP1 PUSH2 0x4FA JUMP JUMPDEST PUSH1 0x40 MLOAD DUP1 SWAP2 SUB SWAP1 REVERT JUMPDEST PUSH1 0x1 DUP1 PUSH1 0x0 CALLER PUSH20 0xFFFFFFFFFFFFFFFFFFFFFFFFFFFFFFFFFFFFFFFF AND PUSH20 0xFFFFFFFFFFFFFFFFFFFFFFFFFFFFFFFFFFFFFFFF AND DUP2 MSTORE PUSH1 0x20 ADD SWAP1 DUP2 MSTORE PUSH1 0x20 ADD PUSH1 0x0 KECCAK256 PUSH1 0x0 PUSH2 0x100 EXP DUP2 SLOAD DUP2 PUSH1 0xFF MUL NOT AND SWAP1 DUP4 ISZERO ISZERO MUL OR SWAP1 SSTORE POP PUSH1 0x1 PUSH1 0x2 DUP3 PUSH1 0x40 MLOAD PUSH2 0x252 SWAP2 SWAP1 PUSH2 0x484 JUMP JUMPDEST SWAP1 DUP2 MSTORE PUSH1 0x20 ADD PUSH1 0x40 MLOAD DUP1 SWAP2 SUB SWAP1 KECCAK256 PUSH1 0x0 DUP3 DUP3 SLOAD PUSH2 0x26F SWAP2 SWAP1 PUSH2 0x5B2 JUMP JUMPDEST SWAP3 POP POP DUP2 SWAP1 SSTORE POP POP JUMP JUMPDEST PUSH1 0x40 MLOAD DUP1 PUSH1 0x60 ADD PUSH1 0x40 MSTORE DUP1 PUSH1 0x0 DUP2 MSTORE PUSH1 0x20 ADD PUSH1 0x0 DUP2 MSTORE PUSH1 0x20 ADD PUSH1 0x0 DUP2 MSTORE POP SWAP1 JUMP JUMPDEST PUSH1 0x0 PUSH2 0x2AD PUSH2 0x2A8 DUP5 PUSH2 0x55A JUMP JUMPDEST PUSH2 0x535 JUMP JUMPDEST SWAP1 POP DUP3 DUP2 MSTORE PUSH1 0x20 DUP2 ADD DUP5 DUP5 DUP5 ADD GT ISZERO PUSH2 0x2C9 JUMPI PUSH2 0x2C8 PUSH2 0x6E8 JUMP JUMPDEST JUMPDEST PUSH2 0x2D4 DUP5 DUP3 DUP6 PUSH2 0x612 JUMP JUMPDEST POP SWAP4 SWAP3 POP POP POP JUMP JUMPDEST PUSH1 0x0 DUP3 PUSH1 0x1F DUP4 ADD SLT PUSH2 0x2F1 JUMPI PUSH2 0x2F0 PUSH2 0x6E3 JUMP JUMPDEST JUMPDEST DUP2 CALLDATALOAD PUSH2 0x301 DUP5 DUP3 PUSH1 0x20 DUP7 ADD PUSH2 0x29A JUMP JUMPDEST SWAP2 POP POP SWAP3 SWAP2 POP POP JUMP JUMPDEST PUSH1 0x0 PUSH1 0x20 DUP3 DUP5 SUB SLT ISZERO PUSH2 0x320 JUMPI PUSH2 0x31F PUSH2 0x6F2 JUMP JUMPDEST JUMPDEST PUSH1 0x0 DUP3 ADD CALLDATALOAD PUSH8 0xFFFFFFFFFFFFFFFF DUP2 GT ISZERO PUSH2 0x33E JUMPI PUSH2 0x33D PUSH2 0x6ED JUMP JUMPDEST JUMPDEST PUSH2 0x34A DUP5 DUP3 DUP6 ADD PUSH2 0x2DC JUMP JUMPDEST SWAP2 POP POP SWAP3 SWAP2 POP POP JUMP JUMPDEST PUSH1 0x0 PUSH2 0x35E DUP3 PUSH2 0x58B JUMP JUMPDEST PUSH2 0x368 DUP2 DUP6 PUSH2 0x5A7 JUMP JUMPDEST SWAP4 POP PUSH2 0x378 DUP2 DUP6 PUSH1 0x20 DUP7 ADD PUSH2 0x621 JUMP JUMPDEST DUP1 DUP5 ADD SWAP2 POP POP SWAP3 SWAP2 POP POP JUMP JUMPDEST PUSH1 0x0 PUSH2 0x391 PUSH1 0x4 DUP4 PUSH2 0x5A7 JUMP JUMPDEST SWAP2 POP PUSH2 0x39C DUP3 PUSH2 0x708 JUMP JUMPDEST PUSH1 0x4 DUP3 ADD SWAP1 POP SWAP2 SWAP1 POP JUMP JUMPDEST PUSH1 0x0 PUSH2 0x3B4 PUSH1 0x9 DUP4 PUSH2 0x5A7 JUMP JUMPDEST SWAP2 POP PUSH2 0x3BF DUP3 PUSH2 0x731 JUMP JUMPDEST PUSH1 0x9 DUP3 ADD SWAP1 POP SWAP2 SWAP1 POP JUMP JUMPDEST PUSH1 0x0 PUSH2 0x3D7 PUSH1 0x18 DUP4 PUSH2 0x596 JUMP JUMPDEST SWAP2 POP PUSH2 0x3E2 DUP3 PUSH2 0x75A JUMP JUMPDEST PUSH1 0x20 DUP3 ADD SWAP1 POP SWAP2 SWAP1 POP JUMP JUMPDEST PUSH1 0x0 PUSH2 0x3FA PUSH1 0x4 DUP4 PUSH2 0x5A7 JUMP JUMPDEST SWAP2 POP PUSH2 0x405 DUP3 PUSH2 0x783 JUMP JUMPDEST PUSH1 0x4 DUP3 ADD SWAP1 POP SWAP2 SWAP1 POP JUMP JUMPDEST PUSH1 0x0 PUSH2 0x41D PUSH1 0x16 DUP4 PUSH2 0x596 JUMP JUMPDEST SWAP2 POP PUSH2 0x428 DUP3 PUSH2 0x7AC JUMP JUMPDEST PUSH1 0x20 DUP3 ADD SWAP1 POP SWAP2 SWAP1 POP JUMP JUMPDEST PUSH1 0x60 DUP3 ADD PUSH1 0x0 DUP3 ADD MLOAD PUSH2 0x449 PUSH1 0x0 DUP6 ADD DUP3 PUSH2 0x475 JUMP JUMPDEST POP PUSH1 0x20 DUP3 ADD MLOAD PUSH2 0x45C PUSH1 0x20 DUP6 ADD DUP3 PUSH2 0x475 JUMP JUMPDEST POP PUSH1 0x40 DUP3 ADD MLOAD PUSH2 0x46F PUSH1 0x40 DUP6 ADD DUP3 PUSH2 0x475 JUMP JUMPDEST POP POP POP POP JUMP JUMPDEST PUSH2 0x47E DUP2 PUSH2 0x608 JUMP JUMPDEST DUP3 MSTORE POP POP JUMP JUMPDEST PUSH1 0x0 PUSH2 0x490 DUP3 DUP5 PUSH2 0x353 JUMP JUMPDEST SWAP2 POP DUP2 SWAP1 POP SWAP3 SWAP2 POP POP JUMP JUMPDEST PUSH1 0x0 PUSH2 0x4A6 DUP3 PUSH2 0x384 JUMP JUMPDEST SWAP2 POP DUP2 SWAP1 POP SWAP2 SWAP1 POP JUMP JUMPDEST PUSH1 0x0 PUSH2 0x4BB DUP3 PUSH2 0x3A7 JUMP JUMPDEST SWAP2 POP DUP2 SWAP1 POP SWAP2 SWAP1 POP JUMP JUMPDEST PUSH1 0x0 PUSH2 0x4D0 DUP3 PUSH2 0x3ED JUMP JUMPDEST SWAP2 POP DUP2 SWAP1 POP SWAP2 SWAP1 POP JUMP JUMPDEST PUSH1 0x0 PUSH1 0x20 DUP3 ADD SWAP1 POP DUP2 DUP2 SUB PUSH1 0x0 DUP4 ADD MSTORE PUSH2 0x4F3 DUP2 PUSH2 0x3CA JUMP JUMPDEST SWAP1 POP SWAP2 SWAP1 POP JUMP JUMPDEST PUSH1 0x0 PUSH1 0x20 DUP3 ADD SWAP1 POP DUP2 DUP2 SUB PUSH1 0x0 DUP4 ADD MSTORE PUSH2 0x513 DUP2 PUSH2 0x410 JUMP JUMPDEST SWAP1 POP SWAP2 SWAP1 POP JUMP JUMPDEST PUSH1 0x0 PUSH1 0x60 DUP3 ADD SWAP1 POP PUSH2 0x52F PUSH1 0x0 DUP4 ADD DUP5 PUSH2 0x433 JUMP JUMPDEST SWAP3 SWAP2 POP POP JUMP JUMPDEST PUSH1 0x0 PUSH2 0x53F PUSH2 0x550 JUMP JUMPDEST SWAP1 POP PUSH2 0x54B DUP3 DUP3 PUSH2 0x654 JUMP JUMPDEST SWAP2 SWAP1 POP JUMP JUMPDEST PUSH1 0x0 PUSH1 0x40 MLOAD SWAP1 POP SWAP1 JUMP JUMPDEST PUSH1 0x0 PUSH8 0xFFFFFFFFFFFFFFFF DUP3 GT ISZERO PUSH2 0x575 JUMPI PUSH2 0x574 PUSH2 0x6B4 JUMP JUMPDEST JUMPDEST PUSH2 0x57E DUP3 PUSH2 0x6F7 JUMP JUMPDEST SWAP1 POP PUSH1 0x20 DUP2 ADD SWAP1 POP SWAP2 SWAP1 POP JUMP JUMPDEST PUSH1 0x0 DUP2 MLOAD SWAP1 POP SWAP2 SWAP1 POP JUMP JUMPDEST PUSH1 0x0 DUP3 DUP3 MSTORE PUSH1 0x20 DUP3 ADD SWAP1 POP SWAP3 SWAP2 POP POP JUMP JUMPDEST PUSH1 0x0 DUP2 SWAP1 POP SWAP3 SWAP2 POP POP JUMP JUMPDEST PUSH1 0x0 PUSH2 0x5BD DUP3 PUSH2 0x608 JUMP JUMPDEST SWAP2 POP PUSH2 0x5C8 DUP4 PUSH2 0x608 JUMP JUMPDEST SWAP3 POP DUP3 PUSH32 0xFFFFFFFFFFFFFFFFFFFFFFFFFFFFFFFFFFFFFFFFFFFFFFFFFFFFFFFFFFFFFFFF SUB DUP3 GT ISZERO PUSH2 0x5FD JUMPI PUSH2 0x5FC PUSH2 0x685 JUMP JUMPDEST JUMPDEST DUP3 DUP3 ADD SWAP1 POP SWAP3 SWAP2 POP POP JUMP JUMPDEST PUSH1 0x0 DUP2 SWAP1 POP SWAP2 SWAP1 POP JUMP JUMPDEST DUP3 DUP2 DUP4 CALLDATACOPY PUSH1 0x0 DUP4 DUP4 ADD MSTORE POP POP POP JUMP JUMPDEST PUSH1 0x0 JUMPDEST DUP4 DUP2 LT ISZERO PUSH2 0x63F JUMPI DUP1 DUP3 ADD MLOAD DUP2 DUP5 ADD MSTORE PUSH1 0x20 DUP2 ADD SWAP1 POP PUSH2 0x624 JUMP JUMPDEST DUP4 DUP2 GT ISZERO PUSH2 0x64E JUMPI PUSH1 0x0 DUP5 DUP5 ADD MSTORE JUMPDEST POP POP POP POP JUMP JUMPDEST PUSH2 0x65D DUP3 PUSH2 0x6F7 JUMP JUMPDEST DUP2 ADD DUP2 DUP2 LT PUSH8 0xFFFFFFFFFFFFFFFF DUP3 GT OR ISZERO PUSH2 0x67C JUMPI PUSH2 0x67B PUSH2 0x6B4 JUMP JUMPDEST JUMPDEST DUP1 PUSH1 0x40 MSTORE POP POP POP JUMP JUMPDEST PUSH32 0x4E487B7100000000000000000000000000000000000000000000000000000000 PUSH1 0x0 MSTORE PUSH1 0x11 PUSH1 0x4 MSTORE PUSH1 0x24 PUSH1 0x0 REVERT JUMPDEST PUSH32 0x4E487B7100000000000000000000000000000000000000000000000000000000 PUSH1 0x0 MSTORE PUSH1 0x41 PUSH1 0x4 MSTORE PUSH1 0x24 PUSH1 0x0 REVERT JUMPDEST PUSH1 0x0 DUP1 REVERT JUMPDEST PUSH1 0x0 DUP1 REVERT JUMPDEST PUSH1 0x0 DUP1 REVERT JUMPDEST PUSH1 0x0 DUP1 REVERT JUMPDEST PUSH1 0x0 PUSH1 0x1F NOT PUSH1 0x1F DUP4 ADD AND SWAP1 POP SWAP2 SWAP1 POP JUMP JUMPDEST PUSH32 0x6C756C6100000000000000000000000000000000000000000000000000000000 PUSH1 0x0 DUP3 ADD MSTORE POP JUMP JUMPDEST PUSH32 0x626F6C736F6E61726F0000000000000000000000000000000000000000000000 PUSH1 0x0 DUP3 ADD MSTORE POP JUMP JUMPDEST PUSH32 0x63616E64696461746520646F6573206E6F742065786973740000000000000000 PUSH1 0x0 DUP3 ADD MSTORE POP JUMP JUMPDEST PUSH32 0x6D6F726F00000000000000000000000000000000000000000000000000000000 PUSH1 0x0 DUP3 ADD MSTORE POP JUMP JUMPDEST PUSH32 0x596F75206861766520616C726561647920766F74656400000000000000000000 PUSH1 0x0 DUP3 ADD MSTORE POP JUMP INVALID LOG2 PUSH5 0x6970667358 0x22 SLT KECCAK256 SWAP11 SUB PUSH18 0xD8B57C1C956E21D6FF27C098025F11D2AF20 0xE 0xC2 PUSH12 0x9DCBA9B926F30A1764736F6C PUSH4 0x43000807 STOP CALLER "
		},
		"gasEstimates": {
			"creation": {
				"codeDepositCost": "411800",
				"executionCost": "infinite",
				"totalCost": "infinite"
			},
			"external": {
				"showResult()": "infinite",
				"vote(string)": "infinite"
			}
		},
		"methodIdentifiers": {
			"showResult()": "33ee3131",
			"vote(string)": "fc36e15b"
		}
	},
	"abi": [
		{
			"inputs": [],
			"stateMutability": "nonpayable",
			"type": "constructor"
		},
		{
			"inputs": [],
			"name": "showResult",
			"outputs": [
				{
					"components": [
						{
							"internalType": "uint256",
							"name": "bolsonaro",
							"type": "uint256"
						},
						{
							"internalType": "uint256",
							"name": "lula",
							"type": "uint256"
						},
						{
							"internalType": "uint256",
							"name": "moro",
							"type": "uint256"
						}
					],
					"internalType": "struct Votation.Result",
					"name": "",
					"type": "tuple"
				}
			],
			"stateMutability": "view",
			"type": "function"
		},
		{
			"inputs": [
				{
					"internalType": "string",
					"name": "_candidate",
					"type": "string"
				}
			],
			"name": "vote",
			"outputs": [],
			"stateMutability": "nonpayable",
			"type": "function"
		}
	]
}